:060000000A128A11AD2A6C
:1004C80030343134323433343434353436343734E8
:1004D800383439348312031389140A128A11C92251
:1004E8000A128A118312031389100A128A11C92267
:1004F8000A128A1108007E088A007F0882000A1200
:100508008A117F220A128A118000840A04087D0653
:1005180003190034FF0A0319FE0A832A83120313FE
:100528002A08F0002B08F100F2018E30FC007C084C
:10053800F300F4010A128A1148240A128A11700879
:1005480083120313AA007108AB007208AC00AC2A2E
:100558000800BF01C001C101C201C301C401C50136
:10056800C601C701C80183135330FD000230FE00E5
:100578006430FF00493084000A128A1183220A126B
:100588008A1183010A128A117B2B83120313C50176
:10059800C60103304602E83003194502031CD52A78
:1005A800D62AD82AE82AE82A0130C5070318C60A35
:1005B8000030C60703304602E83003194502031C21
:1005C800E62AE72AD82AE82A0800710870040319DD
:1005D800EE2AEF2A252BF5010314F50DFF2A013029
:1005E8000310F00DF10DFF3E031DF42A0130F40055
:1005F8007408F507FF2AF11F022B032BF32A052B9A
:10060800052B71087302031D0B2B70087202031C63
:100618000E2B0F2B162B7008F2027108031CF30324
:10062800F302162B01300310F10CF00CFF3E031DF2
:10063800172B0130F502031D222B232B052B252B0D
:10064800252B7308F101F1077208F001F0072C2B34
:100658000800F501F601710870040319342B352BD5
:10066800732BF7010314F70D452B01300310F00D20
:10067800F10DFF3E031D3A2B0130F4007408F70713
:10068800452BF11F482B492B392B4B2B4B2B01307A
:100698000310F50DF60DFF3E031D4C2B7108730278
:1006A800031D582B70087202031C5B2B5C2B642BF8
:1006B8007008F2027108031CF303F3027514642B2B
:1006C80001300310F10CF00CFF3E031D652B0130C7
:1006D800F702031D702B712B4B2B732B732B760892
:1006E800F101F1077508F001F0077A2B080083166D
:1006F80003138701890188013F3085000A128A1196
:10070800C9220A128A110A128A11C9220A128A11E6
:100718000A128A11C9220A128A110A128A11692533
:100728000A128A118030831203139F00C230831685
:1007380003139F00831203131F140A128A110B2735
:100748000A128A110A128A11C9220A128A118312FC
:1007580003131F109F151F140A128A11C9220A12A7
:100768008A110A128A110B270A128A110A128A118F
:10077800C9220A128A11831203131F109F111F1610
:100788001F140A128A110B270A128A110A128A11D7
:10079800C9220A128A11D02BD02B0A128A110028DA
:1007A800F601F11FD82BD92BE22BF009F109F00A39
:1007B8000319F10AF6010314F60DE22BF31FE52BDA
:1007C800E62BF02BF209F309F20A0319F30A0130B8
:1007D800F4007408F606F02BF701F80171087004AC
:1007E8000319F72BF82B362CF5010314F50D082CFB
:1007F80001300310F00DF10DFF3E031DFD2B0130FC
:10080800F4007408F507082CF11F0B2C0C2CFC2B9A
:100818000E2C0E2C01300310F70DF80DFF3E031DB2
:100828000F2C71087302031D1B2C70087202031C25
:100838001E2C1F2C272C7008F2027108031CF303CE
:10084800F3027714272C01300310F10CF00CFF3E53
:10085800031D282C0130F502031D332C342C0E2CDB
:10086800362C362C7608031D3A2C402CF709F8094B
:10087800F70A0319F80A402C7808F101F1077708FC
:10088800F001F007472C08007308031D4C2C542C6A
:10089800720871047004031D522C532C6A2C542CBA
:1008A8000030F0000030F1000030F200C22CC22C01
:1008B8006A2C0130F5007508F30701300310F20CBB
:1008C800F10CF00CFF3E031D622C6A2CFE30720501
:1008D800031D6F2C702C5D2C882C882C0130F500A2
:1008E8007508F3070130F007003003180130F107ED
:1008F800003003180130F20701300310F20CF10C3C
:10090800F00CFF3E031D812CFF307205031D8D2C5A
:100918008E2C722C9B2C9B2C0130F302013003107F
:10092800F00DF10DF20DFF3E031D932C9B2CF11FD2
:100938009E2C9F2C902C7318A22CA32CA92CFF3032
:10094800F0057F30F105FF30F2050310F30C730852
:10095800F500F601F70110300310F50DF60DF70D4F
:10096800FF3E031DB02C7508F0047608F1047708E3
:10097800F2047408031DC12CC22CF2170800780871
:1009880083120313A0007908A1007A08A2000310BB
:10099800210D220DA3002308A900A908031DD52CA9
:1009A800D62CE02C0030FB000030FA000030F900B3
:1009B8000030F800682D682D7808A0007908A1009B
:1009C8007A08A20017300310A20CA10CA00CFF3E5D
:1009D800031DE72C2008A3002308A400F917FF3003
:1009E800F805FF30F9050030FA057808A500790800
:1009F800A6007A08A700A8018E30A902A91F052D14
:100A0800062D2B2D2908803A8F3E03180C2D0D2D0D
:100A1800182D0030FB000030FA000030F9000030DB
:100A2800F800682D682D182D01300310A80CA70CAC
:100A3800A60CA50CFF3E031D192D0130A0002008AF
:100A4800A907031D282D292D182D4F2D4F2D18309E
:100A58002902031C302D312D482D0030FB000030B9
:100A6800FA000030F9000030F800682D682D482D94
:100A78000130A0000310A50DA60DA70DA80DA00B11
:100A88003E2D0130A902482DA908031D4C2D4D2DDE
:100A98003C2D4F2D4F2D2408031D532D5F2DA509E7
:100AA800A609A709A809A50A0319A60A0319A70AE6
:100AB8000319A80A5F2D2808FB002708FA00260852
:100AC800F9002508F800682D08008312031309109F
:100AD800033087000A128A116E220A128A110A123A
:100AE8008A11C9220A128A110A128A116E220A125E
:100AF8008A110A128A11C9220A128A110A128A1143
:100B08006E220A128A110A128A11C9220A128A113D
:100B180002308312031387000A128A116E220A1206
:100B28008A110A128A11C9220A128A110A128A1112
:100B38006E220A128A110A128A11C9220A128A110D
:100B480008308312031387000A128A116E220A12D0
:100B58008A110A128A11C9220A128A1183120313EE
:100B680087010A128A116E220A128A110A128A1140
:100B7800C9220A128A1108308312031387000A1245
:100B88008A116E220A128A110A128A11C9220A12BD
:100B98008A118312031387010A128A116E220A121C
:100BA8008A110F308312031387000A128A116E22EA
:100BB8000A128A110A128A11C9220A128A11831288
:100BC800031387010A128A116E220A128A110A1265
:100BD8008A11C9220A128A11063083120313870068
:100BE8000A128A116E220A128A110A128A11C9225D
:100BF8000A128A118312031387010A128A116E22BC
:100C08000A128A110A128A11C9220A128A1101309B
:100C18008312031387000A128A116E220A128A119C
:100C28000A128A11C9220A128A118312031309149B
:100C38000800831203132D08B3002E08B4002F08F0
:100C4800B5000310340D350DB6003608B700B708E7
:100C5800031D2F2E302E382E0030AD000030AE0090
:100C68000030AF000A2F0A2F3008B3003108B40053
:100C78003208B5000310340D350DB6003608BC0037
:100C8800BC08031D482E492E512E0030AD000030FF
:100C9800AE000030AF000A2F0A2F3C087B3EB3009D
:100CA8003308B7072D08B3002E08B4002F08B50085
:100CB80010300310B50CB40CB30CFF3E031D5D2EB1
:100CC8003308B6003608BC003008B3003108B40059
:100CD8003208B50010300310B50CB40CB30CFF3E4D
:100CE800031D6F2E3308B6003608BC068030B300EB
:100CF8003308BC05AE17B117FF30B005FF30B1059A
:100D08000030B2050030B8000030B9000030BA0039
:100D18000730B3003308BB00912E2D1C942E952E5E
:100D2800A62E3008B807310803110318310A031931
:100D38009E2EB907320803110318320A0319A52E8B
:100D4800BA07A62E01300310AF0CAE0CAD0CFF3E57
:100D5800031DA72E01300310B00DB10DB20DFF3EDB
:100D6800031DAF2E0130BB02031DBB2EBC2E912EDE
:100D7800BD2E0930B3003308BB00C22E2D1CC52E72
:100D8800C62ED72E3008B807310803110318310AC8
:100D98000319CF2EB907320803110318320A0319B1
:100DA800D62EBA07D72E01300310AF0CAE0CAD0CFF
:100DB800FF3E031DD82E01300310BA0CB90CB80C35
:100DC800FF3E031DE02E0130BB02031DEC2EED2E6D
:100DD800C22EEE2E3808F0003908F1003A08F20069
:100DE8003708B3003308F3003C08B4003408F400B3
:100DF8000A128A1148240A128A11700883120313EE
:100E0800AD007108AE007208AF000A2F08000A1280
:100E18008A11C9220A128A11831203131F15142F6B
:100E28001F19172F182F142F192F831603131E0895
:100E380083120313BD00BE013D08C1003E08C20075
:100E48001E08BD00BE013D08C3003E08C40043089B
:100E5800BE00BD013D08C3003E08C400410843046C
:100E6800BF0042084404C0004008AB01AB073F087C
:100E7800AA01AA070A128A1192220A128A11831257
:100E880003132A08B0002B08B1002C08B200E13087
:100E9800AD00FA30AE003E30AF000A128A111D26AE
:100EA8000A128A11831203132D08F8002E08F9007C
:100EB8002F08FA000A128A11C3240A128A11790823
:100EC80083120313C001C0077808BF01BF070A30A7
:100ED800F0000030F1004008F301F3073F08F20189
:100EE800F2070A128A112D230A128A117008831236
:100EF8000313BD003D08C7000A30F0000030F100C0
:100F08004008F301F3073F08F201F2070A128A11B9
:100F1800E9220A128A11700883120313BD003D08E2
:100F2800C8001030F0000030F1004708493E840046
:100F380083130008BD00BE013D08F2003E08F3001F
:100F48000A128A11D4230A128A1170088312031311
:100F580087000A128A116E220A128A118312031359
:100F68004708493E8400831300080F3987000A1296
:100F78008A116E220A128A111030F0000030F10036
:100F8800831203134808493E840083130008BD00F8
:100F9800BE013D08F2003E08F3000A128A11D4236C
:100FA8000A128A1170088312031387000A128A1121
:100FB8006E220A128A11831203134808493E8400DC
:100FC800831300080F3987000A128A116E220A1249
:100FD8008A1102308312031387000A128A116E22C3
:100FE8000A128A110C308312031387000A128A111D
:080FF8006E220A128A110800A2
:00000001FF
